:1000000008308A0000280000FF00030E8301A100D1
:100010000A08A0008A010408A2007708A300780853
:10002000A4007908A5007A08A60003170D08031399
:10003000A70003170F080313A80003170C080313E6
:10004000A90003170E080313AA00831383128B1D44
:100050002B280B1852288C308400001C31280C18D7
:100060005528220884002308F7002408F8002508F2
:10007000F9002608FA00270803178D000313280843
:1000800003178F000313290803178C0003132A0892
:1000900003178E00031320088A00210E8300FF0E31
:1000A0007F0E09008A110A127E288A110A1260281E
:1000B0000A108A100A11820728340C3401340634DD
:1000C000C9114908831687000830831287068E01FC
:1000D000E6308F009C308E000C108A110A123128F5
:1000E0006C3084008313000803197D282830F70042
:1000F000F70B78280000800B762808008316061678
:100100008312061A8F28831686168312861E8F285E
:10011000831686178312861F8F284015EB288316B7
:1001200086168312861AA128831606168312061EC7
:10013000A128831686178312861FA1288A0100280A
:10014000EB28831686178312861BEB2883168616E8
:100150008312861EEB28831606168312061EEB28D2
:100160004018D328C91049088316870083128710C6
:100170000C309D000130E9003B30E8006908F900CF
:100180006808F800F90CF80CF90CF80CF90C780870
:100190009B00F90C790C3039F7001D08CF39770432
:1001A0009D004014EB284010F0309705EB01EA0168
:1001B0006B08F9006A08F800F90CF80CF90CF80C57
:1001C000F90C78089B00F90C790C3039F7001D0800
:1001D000CF3977049D00C830EC0070200B108A11D5
:1001E0000A123128D6326E3A693661326F39C63416
:1001F000F334E33700000A2B6537F434EC30F3179F
:100200006D1DA012311730330000D6326E3A6936B8
:1002100061326F39CD30EE3A613600010A2B653715
:10022000F434EC30F3176D1DA01231173033000198
:100230000130CF004030CE000C30F700F70B1E2904
:100240002129CE0B2829CF0B2829AC01F80132290E
:100250008C1E1C291808AC001A08F800AC1C3229A6
:10026000181218160800630EF039F7000F30080551
:100270007704880000000814081008008810F03087
:10028000831688008312081500000814000008086F
:10029000080E0F39E3000810000008140808080EC3
:1002A0000F39E20008100030831688008312630EB5
:1002B000F700F030F70577086204F8007808E200EC
:1002C000E21B3F29601C8810601888140000081188
:1002D00000000810610EE2000F30E2056208E30042
:1002E000332161080F39E200E300332108000030B8
:1002F000831688008312881008110810AB018B1B2D
:10030000AB178B130F30EC007020AB1B8B17013039
:10031000CE004E08033C031C98290330E300332130
:10032000CF30F700F70B922995290000CE0A8929D2
:100330000230E3003321CE014E08033C031CA929FF
:100340004E085820CF00E0014F08E1003E21CE0AC0
:100350009C2908008E30F7004F08F8004E08F9007D
:10036000FA01F808031DBE297908F800F9010830E0
:10037000F702F808031DBE29F701C6290310F81B70
:10038000C529F90DF80DF703BE29F81308004E082A
:1003900003198C2ADA00520803198C2ADA02031C8A
:1003A000D6297F30DA0703188C2ADC298130DA025B
:1003B000031C8C2A03198C2A5A08F700F801F9014A
:1003C000FA01D9014F08D800D8175008D7005108B2
:1003D000D6001930DA005508D6020318FF2901307B
:1003E000D7020318FF29D8020318FF29D9020318DE
:1003F000FF29D90AD80AD70A5508D607312A54083E
:10040000D70203181A2A0130D80203181A2AD9026F
:1004100003181A2AD90AD80A5408D7075508D60744
:10042000031C312AD70A031D312AD80A031D312A99
:10043000D90A312A53088038D8020318302A0130EB
:10044000D9020318302AD90A53088038D80754082B
:10045000D707031C0E2AD80A031D0E2AD90A0E2A12
:100460007A14DA0B342A3F2A0310D60DD70DD80D93
:10047000D90D0310FA0DF90DF80DDB0DEB295B1CFE
:10048000472A0310F80CF90CFA0CDB0C4A2AF70384
:1004900003198C2ADB1B732A0310D60DD70DD80D38
:1004A000D90D5508D60203185F2A0130D702031868
:1004B0005F2AD80203185F2AD902031C822A540833
:1004C000D70203186A2A0130D80203186A2AD9020F
:1004D000031C822A53088038D8020318732A01307B
:1004E000D902031C822AFA0A031D822AF90A031D73
:1004F000822AF80A031D822AF70A03198C2AF80CAB
:10050000F90CFA0C4F08DA005308DA06DA1F8A2AC7
:10051000F817902AF813902AF701F801F901FA0167
:10052000080080308318D306D801D9014F08D700BE
:100530005308D7064E080319812BD600F70052083E
:1005400003198A2BD6020319262B031CE42A53080D
:10055000DC00DC175408DB005508DA00D901031071
:10056000DC0CDB0CDA0CD90CD60BAE2AD71FBB2A5D
:1005700058149E2B5810561058165130840083136F
:10058000B32B5812D71BCE2A561CD92ADC0CDB0CF5
:10059000DA0CD90CF70A0319992BD92ADC1BDC2AAF
:1005A0000310D90DDA0DDB0DDC0DF7030319992BC0
:1005B000CE2A5817462B58134F08D700D71FE22AC8
:1005C000DC17922BDC13922B5208D600F7004E0852
:1005D000D6024F08DC00DC175008DB005108DA00B7
:1005E000D9010310DC0CDB0CDA0CD90CD60BF02A89
:1005F000D71FFD2AD8149E2BD8105610D816553068
:1006000084008313B32BD812D71B102B561C1B2B23
:10061000DC0CDB0CDA0CD90CF70A0319992B1B2B19
:10062000DC1B1E2B0310D90DDA0DDB0DDC0DF703DF
:100630000319992B102BD817462BD8135308D70022
:10064000D71F242BDC17922BDC13922B5308DC00D2
:10065000DC175408DB005508DA00D71F332BDC13F6
:1006600058159E2B5811D901561051308400831310
:10067000B32BD71B5C2B4F08D700561C462BDC0C2A
:10068000DB0CDA0CD90CF70A0319992BD91F572B5D
:10069000DA0A031D572BDB0A031D572BDC0A031D47
:1006A000572BDC0CDB0CDA0CF70A0319992B581BBF
:1006B000DB2AD81B1D2B7B2B8030DC06DC1F642B38
:1006C0009E2B5308D700712B4F08D700DC08031D61
:1006D000712BDB08031D712BDA08031D712BF70149
:1006E000922BDC1B7B2B0310D90DDA0DDB0DDC0DFF
:1006F000F70B712B992BD71F7F2BDC17922BDC1359
:10070000922B5208F7005308DC005408DB00550810
:10071000DA00922B4E08F7004F08DC005008DB008F
:100720005108DA005C08F8005B08F9005A08FA0082
:10073000D12BF701F801F901FA01D12BD901DA091E
:10074000DB09DC09D909D90A031DAC2BDA0A031D20
:10075000AC2BDB0A0319DC0A5818BA2AD818FC2A71
:100760005819322B612B0008DA07031CBD2BDB0A5A
:10077000031DBD2BDC0A0319561484030008DB0794
:10078000031CC52BDC0A0319561484030008801FC0
:10079000803ADC0703185614581AC12AD81A032BBA
:1007A000392B08005B080C3A0319DD2B063A0319B4
:1007B000E82B023A0319FE2B032CE0010130E10083
:1007C0003E215230F700F70BE32BE62B0000082CFC
:1007D0000130DC000230DD005D0BEF2BF22B4030EE
:1007E000DE00F32BDE0101305C02DE075E0880389C
:1007F000DF00E0015F08E1003E21082CE00110303D
:10080000E1003E21082C0130E0005B08E1003E21C0
:1008100008000B08CE008B13831603178C170C14DB
:100820000000000083120313CE1B8B1703170C0864
:100830007F3903195D2C0313CE0003170D08031332
:10084000CF0003170F080313D0004E08DB00D2239C
:100850004F0803178D000313500803178F0003136D
:100860000B08D1008B13831603178C170C14000090
:10087000000083120313D11B8B1703170C0D0E0DF1
:100880007F3903195D2C0313CE0003170D080313E2
:10089000CF0003170F080313D0004E08DB00D2234C
:1008A0004F0803178D000313500803178F008D0A9C
:1008B00003198F0A0313092C0317031308000B08ED
:1008C000CF008B13831603178C170C140000000045
:1008D00083120313CF1B8B170318962C03170C08D6
:1008E0007F390313CF0003170D080313D00003173C
:1008F0000F080313D1004F08DB00D2235008031761
:100900008D000313510803178F0003130B08D20047
:100910008B13831603178C170C140000000083122E
:100920000313D21B8B17CE0B962CB52C03170C0D73
:100930000E0D7F390313CF0003170D080313D000EA
:1009400003170F080313D1004F08DB00D223500810
:1009500003178D000313510803178F008D0A031925
:100960008F0A03100313CE0B5F2C08005B080319DA
:10097000262DE3005F080319262DE3070318C72C73
:100980007F30E302031C262D0319262DCB2C81304A
:10099000E3070318262D6308F700F801F901FA01AF
:1009A0005C08E700E7175D08E6005E08E500183020
:1009B000E300E401651CF42C6208FA07031CE62C32
:1009C000F90A031DE62CF80A0319E4176108F90770
:1009D000031CED2CF80A0319E4176008DD00DD178D
:1009E0005D08F8070318E417E40DF80CF90CFA0C8D
:1009F000E70CE60CE50C0310E30BD92C0130F707EC
:100A00000318262DF81B0B2DE70DFA0DF90DF80D27
:100A1000F7030319262DE71F1C2DFA0A031D1C2DB1
:100A2000F90A031D1C2DF80A031D1C2DF80CF90CE6
:100A3000FA0CF70A0319262D5C08E4006008E406A6
:100A4000E41F242DF8172A2DF8132A2DF701F80199
:100A5000F901FA0108005B08B63CDB00FA015C080A
:100A6000DF00DC170310DC0CDD0CDE0CFA0CF90CDB
:100A7000F80CF70CDB0B322DDF1F492DF709F809B5
:100A8000F909FA09F70A0319F80A0319F90A031907
:100A9000FA0A080083184F2D633084008313F7018E
:100AA000F801F901FA01E301E401E501E601620858
:100AB000610460045F0403198D2D2030E7000310EA
:100AC000DB0DDC0DDD0DDE0DE30DE40DE50DE60DBA
:100AD00062086602031D762D61086502031D762DEE
:100AE00060086402031D762D5F086302031C872DD6
:100AF0005F08E3026008031C600FE4026108031C46
:100B0000610FE5026208031C620FE6020314F70D91
:100B1000F80DF90DFA0DE70B5F2D63088000840ACC
:100B200064088000840A65088000840A66088000E2
:100B300008000408D3005208D5000319B82D510845
:100B4000DE005008DD004F08DC004E08DB00E2014B
:100B5000E1012030E0008230DF00B6247A08D100C5
:100B60007908D0007808CF007708CE00D50B9F2DEC
:100B70005108DE005008DD004F08DC004E08DB00A5
:100B80002B257A08D1007908D0007808CF007708A3
:100B9000CE00D11FD82DD303D316CE09CF09D0094B
:100BA000D109CE0A0319CF0A0319D00A0319D10AB1
:100BB0003B30DA009A30D900CA30D800D7010A3069
:100BC000D50052080319D30A83144E3084008313CE
:100BD0005108DE005008DD004F08DC004E08DB0045
:100BE0005A08E2005908E1005808E0005708DF0001
:100BF0004A257808F708031D102E520A55020319DA
:100C0000102E53080319122E0F39550203190A2EFC
:100C10000318422ED31B422E531B122E20303E2E81
:100C20002030D305D31E202ED3125208031DD30328
:100C30007708D3002D30DB00D2235308F700D3010F
:100C400052085502031D2E2E7708D3002E30DB00EC
:100C5000D2235308F7002030D30500303030D31EA4
:100C60003E2ED3125208031DD3037708D3002D3034
:100C7000DB00D2235308F700D3013030F7077708A1
:100C8000DB00D22383105A08DE005908DD00580823
:100C9000DC005708DB00E201E101E0010A30DF007F
:100CA0004A257A08DA007908D9007808D800770848
:100CB000D700D50BE42D0800D6010408D500561046
:100CC000831B56144F0EF038D100D107E23ED200FC
:100CD000323ED4004F080F39D207D207D407E93E7D
:100CE000D300D307D3074E0E0F39D307D407D30D44
:100CF000D40DD409D40D4E080F39D407D10D0730C7
:100D0000D0000A30D407D303031C822ED307D203AA
:100D1000031C862ED207D103031C8A2ED107D003D1
:100D2000031C8E2E50308400831307305505551355
:100D3000840754300402031955170008F700031DF7
:100D4000A92E551BA92E551AB12ED519A92E203022
:100D5000AC2ED51555123030F70777080C1EAE2E85
:100D60009900840A551F992E08000408D3005208E0
:100D7000D5000319D42E5108DE005008DD004F08BD
:100D8000DC004E08DB00E201E1012030E0008230AF
:100D9000DF00B6247A08D1007908D0007808CF00A7
:100DA0007708CE00D50BBB2E5108DE005008DD00C1
:100DB0004F08DC004E08DB002B257A08D1007908AB
:100DC000D0007808CF007708CE00D11FF42ED303CF
:100DD000D316CE09CF09D009D109CE0A0319CF0AFB
:100DE0000319D00A0319D10A3B30DA009A30D9002E
:100DF000CA30D800D7010A30D50052080319D30AE7
:100E000083144E30840083135108DE005008DD0047
:100E10004F08DC004E08DB005A08E2005908E100E8
:100E20005808E0005708DF004A257808F708031D36
:100E30002C2F520A550203192C2F530803192E2F59
:100E40000F3955020319262F0318622FD31B622F67
:100E5000531B2E2F20305D2F2030D305D31E3D2F66
:100E6000D3125208031DD3037708D3002D300C1E74
:100E7000372F99005308F700D30152085502031D7C
:100E80004C2F7708D3002E300C1E442F99005308A6
:100E9000F7002030D30500303030D31E5D2FD31241
:100EA0005208031DD3037708D3002D300C1E562F94
:100EB00099005308F700D3013030F70777080C1E6C
:100EC0005F2F990083105A08DE005908DD0058088A
:100ED000DC005708DB00E201E101E0010A30DF003D
:100EE0004A257A08DA007908D9007808D800770806
:100EF000D700D50B002F08008E30F7004E08F70200
:100F00004F08F9005008F800F917F7080319932F54
:100F10000310F908031D8F2FF8080319932FF90CFC
:100F2000F80CF70B882FCF1F9A2FF809F909F80A48
:080F30000319F90A080008008A
:1010000003081F398300313083168F000F088312C5
:10101000AC018316031787150C30031399000030B9
:101020009A00A6309800903083129800AD01AF016D
:10103000AE01B301B201B101B001B5011F30B4007E
:10104000B701B601B901B801BB01BA01BD01BC01CC
:10105000BF01BE014010C0104011C0114130C70097
:10106000FF30C900831603170908C039890003132C
:101070001F129F1200300317880083128701880116
:101080008901831300308316031388000910891027
:101090000911891183128801FF308316950081138D
:1010A00083121F179F1783169F1383121F14831613
:1010B00003170908C039890003131F129F1201305A
:1010C000031788000030F800831203131F08C33988
:1010D00078049F000030F800063892009B30831699
:1010E0009200F030831297059D059001C01483167D
:1010F0000C1083128B15FF3083169604C0308312B8
:101100008B044708413A031989280C3A0319862BA6
:10111000CA2E8A1118218A157808C8008A117721E9
:101120008A15831603170908C039890003131F1293
:101130009F12013003178800831203131F179F1794
:1011400083169F1383121F149F149F18A528C20192
:101150001E08C1004208CF004108CE008A11AA2112
:101160008A157A08D1007908D0007808CF0077086E
:10117000CE006A30D500BC30D4005630D300813068
:10118000D2008A11C7218A158310D101D0014030C5
:10119000CF008230CE007A08D5007908D4007808D4
:1011A000D3007708D2008A1191228A157A08C600E6
:1011B0007908C5007808C4007708C300F230031727
:1011C0008D0000308F008A11031309248A15FB302B
:1011D00003178D0000308F0003100D300313CE0075
:1011E0008A115F248A15003084004608D100450822
:1011F000D0004408CF004308CE00D2018A119925BF
:101200008A15AB018B1BAB178B136430EC008A1172
:1012100070208A15AB1B8B17103084004208CF005A
:101220004108CE008A115C268A152C300C1E162926
:101230009900003084004608D1004508D0004408D9
:10124000CF004308CE00D2018A11B5268A150A3094
:101250000C1E282999000D300C1E2C299900C01D48
:101260003E2AB5011E30B400B508031D70293408AC
:101270002F3C031C70293508F9003408F800F90CDC
:10128000F80CF90CF80CF90C78089500F90C790CAD
:101290003039F7001708CF39770497003708CE00A8
:1012A000CE0ACE0303196029AB018B1BAB178B133E
:1012B000FF30EC008A1170208A15AB1B8B17512967
:1012C000AB018B1BAB178B133608EC008A11702017
:1012D0008A15AB1B8B170130B4070318B50A3429E4
:1012E000B5012F30B400B508031DAF2934082A3CDE
:1012F000031CAF293508F9003408F800F90CF80C84
:10130000F90CF80CF90C78089500F90C790C3039C7
:10131000F7001708CF39770497003908CE00CE0AB6
:10132000CE0303199F29AB018B1BAB178B13FF3027
:10133000EC008A1170208A15AB1B8B179029AB012A
:101340008B1BAB178B133808EC008A1170208A15A1
:10135000AB1B8B170130B4070318B50A73293B0880
:10136000CE00CE0ACE030319C129AB018B1BAB17EC
:101370008B13FF30EC008A1170208A15AB1B8B1782
:10138000B229AB018B1BAB178B133A08EC008A1107
:1013900070208A15AB1B8B17B5012530B4003508BA
:1013A000F9003408F800F90CF80CF90CF80CF90CF9
:1013B00078089500F90C790C3039F7001708CF3907
:1013C00077049700B508031DE92934081D3C03186C
:1013D000202A3508F9003408F800F90CF80CF90C4B
:1013E000F80CF90C78089500F90C790C3039F700F5
:1013F0001708CF39770497003D08CE00CE0ACE03F8
:1014000003190E2AAB018B1BAB178B13FF30EC00BB
:101410008A1170208A15AB1B8B17FF29AB018B1B20
:10142000AB178B133C08EC008A1170208A15AB1B9C
:101430008B170130B4020030031C0130B502E229E1
:101440003F08CE00CE0ACE030319322AAB018B1B14
:10145000AB178B13FF30EC008A1170208A15AB1B81
:101460008B17232AAB018B1BAB178B133E08EC00A9
:101470008A1170208A15AB1B8B177F2B401D392BCF
:10148000CF012D08CE008A11AA218A15D101603022
:10149000D0006A30CF008E30CE007A08D5007908AF
:1014A000D4007808D3007708D2008A11C7218A15A2
:1014B0007A08B3007908B2007808B1007708B00064
:1014C0003308DE003208DD003108DC003008DB00C4
:1014D000D130E2006330E1004A30E0007830DF00D4
:1014E0008A11B6248A157A08D1007908D0007808C4
:1014F000CF007708CE008A117C278A157908B700BB
:101500007808B6003308DE003208DD003108DC0060
:101510003008DB006F30E2001230E1000330E00001
:101520007930DF008A11B6248A157A08D10079084B
:10153000D0007808CF007708CE008A117C278A1562
:101540007908B9007808B8003308DE003208DD00F9
:101550003108DC003008DB002930E2005C30E100BB
:101560000F30E0007C30DF008A11B6248A157A083B
:10157000D1007908D0007808CF007708CE008A1112
:101580007C278A157908BB007808BA003308DE008A
:101590003208DD003108DC003008DB00EC30E2000E
:1015A0006430E1003530E0007A30DF008A11B62483
:1015B0008A157A08D1007908D0007808CF0077081A
:1015C000CE008A117C278A157908BD007808BC00F6
:1015D0003308DE003208DD003108DC003008DB00B3
:1015E000B830E2001E30E1000530E0007D30DF0061
:1015F0008A11B6248A157A08D1007908D0007808B3
:10160000CF007708CE008A117C278A157908BF00A1
:101610007808BE00C0154011C01049114908831652
:101620008700831207110C30970083169B019C01E1
:1016300001309D0083123508F9003408F800F90CD8
:10164000F80CF90CF80CF90C78089500F90C790CE9
:101650003039F7001708CF397704970083160C1438
:101660000530831290008E01CF308F002C308E0019
:101670007F2BC01C7F2B9F149F183C2BAF011E0893
:10168000AE002F08CF002E08CE008A11AA218A159D
:101690007A08D1007908D0007808CF007708CE000A
:1016A0006A30D500BC30D4005630D3008130D2002F
:1016B0008A11C7218A158310D101D0014030CF0093
:1016C0008230CE007A08D5007908D4007808D3009B
:1016D0007708D2008A1191228A157A08D1007908F8
:1016E000D0007808CF007708CE008A117C278A15B1
:1016F0007808AD002D08CE008A119B278A1548086E
:101700004D3C031D852B4D30C700CA2E8A11182170
:101710008A157808C8008A1177218A15831603175D
:101720000908C039890003131F129F1201300317E3
:101730008800831203131F179F1783169F138312AA
:101740001F149F149F18A22BC2011E08C10042083B
:10175000CF004108CE008A11AA218A157A08D1004B
:101760007908D0007808CF007708CE006A30D5001D
:10177000BC30D4005630D3008130D2008A11C7214A
:101780008A158310D101D0014030CF008230CE00C5
:101790007A08D5007908D4007808D3007708D200F9
:1017A0008A1191228A157A08C6007908C50078083E
:1017B000C4007708C300053003178D0001308F0087
:1017C0008A11031309248A150E3003178D00013086
:1017D0008F0003100D300313CE008A115F248A1589
:1017E000003084004608D1004508D0004408CF00EE
:1017F0004308CE00D2018A1199258A15AB018B1BB3
:10180000AB178B136430EC008A1170208A15AB1B68
:101810008B17103084004208CF004108CE008A1197
:101820005C268A152C300C1E132C99000030840085
:101830004608D1004508D0004408CF004308CE0038
:10184000D2018A11B5268A150A300C1E252C990062
:101850000D300C1E292C99004808493C031D322CE0
:101860004015782C4808503C031D392C8A0100286B
:10187000782C4808453C031D782C4018602CC91072
:10188000490883168700831287100C309D000130B1
:10189000CB003B30CA004B08F9004A08F800F90CAD
:1018A000F80CF90CF80CF90C78089B00F90C790C81
:1018B0003039F7001D08CF3977049D004014782C8B
:1018C0004010F0309705CD01CC014D08F9004C08CF
:1018D000F800F90CF80CF90CF80CF90C78089B00DE
:1018E000F90C790C3039F7001D08CF3977049D00C9
:1018F000C01D872DB5011E30B400B508031DB92CDD
:1019000034082F3C031CB92C3508F9003408F800C2
:10191000F90CF80CF90CF80CF90C78089500F90C96
:10192000790C3039F7001708CF397704970037085A
:10193000CE00CE0ACE030319A92CAB018B1BAB172B
:101940008B13FF30EC008A1170208A15AB1B8B17AC
:101950009A2CAB018B1BAB178B133608EC008A114A
:1019600070208A15AB1B8B170130B4070318B50A1A
:101970007D2CB5012F30B400B508031DF82C3408B8
:101980002A3C031CF82C3508F9003408F800F90C3F
:10199000F80CF90CF80CF90C78089500F90C790C96
:1019A0003039F7001708CF39770497003908CE008F
:1019B000CE0ACE030319E82CAB018B1BAB178B139C
:1019C000FF30EC008A1170208A15AB1B8B17D92CC5
:1019D000AB018B1BAB178B133808EC008A117020FE
:1019E0008A15AB1B8B170130B4070318B50ABC2C42
:1019F0003B08CE00CE0ACE0303190A2DAB018B1B88
:101A0000AB178B13FF30EC008A1170208A15AB1BCB
:101A10008B17FB2CAB018B1BAB178B133A08EC001D
:101A20008A1170208A15AB1B8B17B5012530B400C5
:101A30003508F9003408F800F90CF80CF90CF80C2A
:101A4000F90C78089500F90C790C3039F700170873
:101A5000CF3977049700B508031D322D34081D3C9B
:101A60000318692D3508F9003408F800F90CF80C52
:101A7000F90CF80CF90C78089500F90C790C303950
:101A8000F7001708CF39770497003D08CE00CE0A3B
:101A9000CE030319572DAB018B1BAB178B13FF30F4
:101AA000EC008A1170208A15AB1B8B17482DAB01F7
:101AB0008B1BAB178B133C08EC008A1170208A1526
:101AC000AB1B8B170130B4020030031C0130B50290
:101AD0002B2D3F08CE00CE0ACE0303197B2DAB0180
:101AE0008B1BAB178B13FF30EC008A1170208A150B
:101AF000AB1B8B176C2DAB018B1BAB178B133E08ED
:101B0000EC008A1170208A15AB1B8B17C82E401D64
:101B1000822ECF012D08CE008A11AA218A15D1016B
:101B20006030D0006A30CF008E30CE007A08D50009
:101B30007908D4007808D3007708D2008A11C72129
:101B40008A157A08B3007908B2007808B1007708DE
:101B5000B0003308DE003208DD003108DC00300858
:101B6000DB00D130E2006330E1004A30E000783041
:101B7000DF008A11B6248A157A08D1007908D000CE
:101B80007808CF007708CE008A117C278A1579085B
:101B9000B7007808B6003308DE003208DD003108EF
:101BA000DC003008DB006F30E2001230E10003306F
:101BB000E0007930DF008A11B6248A157A08D10056
:101BC0007908D0007808CF007708CE008A117C27EA
:101BD0008A157908B9007808B8003308DE003208A1
:101BE000DD003108DC003008DB002930E2005C3029
:101BF000E1000F30E0007C30DF008A11B6248A1546
:101C00007A08D1007908D0007808CF007708CE0094
:101C10008A117C278A157908BB007808BA00330836
:101C2000DE003208DD003108DC003008DB00EC307B
:101C3000E2006430E1003530E0007A30DF008A11E4
:101C4000B6248A157A08D1007908D0007808CF0028
:101C50007708CE008A117C278A157908BD0078089C
:101C6000BC003308DE003208DD003108DC0030083B
:101C7000DB00B830E2001E30E1000530E0007D30CE
:101C8000DF008A11B6248A157A08D1007908D000BD
:101C90007808CF007708CE008A117C278A1579084A
:101CA000BF007808BE00C0154011C0104911490896
:101CB00083168700831207110C30970083169B014F
:101CC0009C0101309D0083123508F9003408F800AA
:101CD000F90CF80CF90CF80CF90C78089500F90CD3
:101CE000790C3039F7001708CF397704970083163D
:101CF0000C140530831290008E01CF308F002C30F1
:101D00008E00C82EC01CC82E9F149F18852EAF01B0
:101D10001E08AE002F08CF002E08CE008A11AA217F
:101D20008A157A08D1007908D0007808CF007708A2
:101D3000CE006A30D500BC30D4005630D30081309C
:101D4000D2008A11C7218A158310D101D0014030F9
:101D5000CF008230CE007A08D5007908D400780808
:101D6000D3007708D2008A1191228A157A08D1000F
:101D70007908D0007808CF007708CE008A117C2738
:101D80008A157808AD002D08CE008A119B278A1588
:081D9000CA2E782C81286300A3
:04400E00E42CFF3F60
:00000001FF
;PIC16F887
;CRC=D24D  CREATED="25-may.-22 12:48"
